{
  "contractName": "GpoDetailContract",
  "abi": [
    {
      "constant": true,
      "inputs": [],
      "name": "owner",
      "outputs": [
        {
          "name": "",
          "type": "address"
        }
      ],
      "payable": false,
      "stateMutability": "view",
      "type": "function"
    },
    {
      "inputs": [],
      "payable": false,
      "stateMutability": "nonpayable",
      "type": "constructor"
    },
    {
      "constant": false,
      "inputs": [
        {
          "name": "_gpo_id",
          "type": "string"
        },
        {
          "name": "_sup_id",
          "type": "string"
        },
        {
          "name": "_created_by",
          "type": "string"
        },
        {
          "name": "_created_on",
          "type": "uint256"
        },
        {
          "name": "_updated_by",
          "type": "string"
        },
        {
          "name": "_updated_on",
          "type": "uint256"
        },
        {
          "name": "_void_by",
          "type": "string"
        },
        {
          "name": "_void_on",
          "type": "uint256"
        }
      ],
      "name": "setContractDetail",
      "outputs": [],
      "payable": false,
      "stateMutability": "nonpayable",
      "type": "function"
    },
    {
      "constant": false,
      "inputs": [
        {
          "name": "_p_id",
          "type": "string"
        },
        {
          "name": "_p_code",
          "type": "string"
        },
        {
          "name": "_p_sup_item",
          "type": "string"
        },
        {
          "name": "_p_ndc",
          "type": "string"
        },
        {
          "name": "_item_title",
          "type": "string"
        }
      ],
      "name": "setDetailCode",
      "outputs": [],
      "payable": false,
      "stateMutability": "nonpayable",
      "type": "function"
    },
    {
      "constant": false,
      "inputs": [
        {
          "name": "_gtin_code",
          "type": "string"
        },
        {
          "name": "_prod_cond",
          "type": "string"
        },
        {
          "name": "_brand_name",
          "type": "string"
        },
        {
          "name": "_unspsc_code",
          "type": "string"
        },
        {
          "name": "_class_cat_code",
          "type": "string"
        },
        {
          "name": "_name_of_mfr",
          "type": "string"
        },
        {
          "name": "_contract_id",
          "type": "string"
        },
        {
          "name": "_contract_pr",
          "type": "int256"
        },
        {
          "name": "_ptt_code",
          "type": "int256"
        },
        {
          "name": "_p_cur_code",
          "type": "string"
        },
        {
          "name": "_p_sh_amt",
          "type": "int256"
        },
        {
          "name": "_p_sh_pct",
          "type": "int256"
        }
      ],
      "name": "setDetailCode2",
      "outputs": [],
      "payable": false,
      "stateMutability": "nonpayable",
      "type": "function"
    },
    {
      "constant": false,
      "inputs": [
        {
          "name": "_contracted_list",
          "type": "address"
        }
      ],
      "name": "setContractedList",
      "outputs": [],
      "payable": false,
      "stateMutability": "nonpayable",
      "type": "function"
    },
    {
      "constant": false,
      "inputs": [
        {
          "name": "_prod_tier_rewards",
          "type": "address"
        }
      ],
      "name": "setProdTierRewards",
      "outputs": [],
      "payable": false,
      "stateMutability": "nonpayable",
      "type": "function"
    },
    {
      "constant": false,
      "inputs": [
        {
          "name": "_comments",
          "type": "string"
        }
      ],
      "name": "setComments",
      "outputs": [],
      "payable": false,
      "stateMutability": "nonpayable",
      "type": "function"
    }
  ],
  "bytecode": "0x6060604052341561000f57600080fd5b336000806101000a81548173ffffffffffffffffffffffffffffffffffffffff021916908373ffffffffffffffffffffffffffffffffffffffff160217905550610a758061005e6000396000f300606060405260043610610083576000357c0100000000000000000000000000000000000000000000000000000000900463ffffffff1680631860d5a2146100885780638da5cb5b1461020c5780639279ca1e146102615780639e9b2c501461029a578063b049f1ef146102f7578063bbeb315714610460578063e1b71d7e14610499575b600080fd5b341561009357600080fd5b61020a600480803590602001908201803590602001908080601f0160208091040260200160405190810160405280939291908181526020018383808284378201915050505050509190803590602001908201803590602001908080601f0160208091040260200160405190810160405280939291908181526020018383808284378201915050505050509190803590602001908201803590602001908080601f0160208091040260200160405190810160405280939291908181526020018383808284378201915050505050509190803590602001909190803590602001908201803590602001908080601f0160208091040260200160405190810160405280939291908181526020018383808284378201915050505050509190803590602001909190803590602001908201803590602001908080601f016020809104026020016040519081016040528093929190818152602001838380828437820191505050505050919080359060200190919050506106ef565b005b341561021757600080fd5b61021f610781565b604051808273ffffffffffffffffffffffffffffffffffffffff1673ffffffffffffffffffffffffffffffffffffffff16815260200191505060405180910390f35b341561026c57600080fd5b610298600480803573ffffffffffffffffffffffffffffffffffffffff169060200190919050506107a6565b005b34156102a557600080fd5b6102f5600480803590602001908201803590602001908080601f016020809104026020016040519081016040528093929190818152602001838380828437820191505050505050919050506107ea565b005b341561030257600080fd5b61045e600480803590602001908201803590602001908080601f0160208091040260200160405190810160405280939291908181526020018383808284378201915050505050509190803590602001908201803590602001908080601f0160208091040260200160405190810160405280939291908181526020018383808284378201915050505050509190803590602001908201803590602001908080601f0160208091040260200160405190810160405280939291908181526020018383808284378201915050505050509190803590602001908201803590602001908080601f0160208091040260200160405190810160405280939291908181526020018383808284378201915050505050509190803590602001908201803590602001908080601f01602080910402602001604051908101604052809392919081815260200183838082843782019150505050505091905050610804565b005b341561046b57600080fd5b610497600480803573ffffffffffffffffffffffffffffffffffffffff1690602001909190505061087e565b005b34156104a457600080fd5b6106ed600480803590602001908201803590602001908080601f0160208091040260200160405190810160405280939291908181526020018383808284378201915050505050509190803590602001908201803590602001908080601f0160208091040260200160405190810160405280939291908181526020018383808284378201915050505050509190803590602001908201803590602001908080601f0160208091040260200160405190810160405280939291908181526020018383808284378201915050505050509190803590602001908201803590602001908080601f0160208091040260200160405190810160405280939291908181526020018383808284378201915050505050509190803590602001908201803590602001908080601f0160208091040260200160405190810160405280939291908181526020018383808284378201915050505050509190803590602001908201803590602001908080601f0160208091040260200160405190810160405280939291908181526020018383808284378201915050505050509190803590602001908201803590602001908080601f0160208091040260200160405190810160405280939291908181526020018383808284378201915050505050509190803590602001909190803590602001909190803590602001908201803590602001908080601f016020809104026020016040519081016040528093929190818152602001838380828437820191505050505050919080359060200190919080359060200190919050506108c2565b005b87600190805190602001906107059291906109a4565b50866002908051906020019061071c9291906109a4565b5085601590805190602001906107339291906109a4565b508460168190555083601790805190602001906107519291906109a4565b5082601881905550816019908051906020019061076f9291906109a4565b5080601a819055505050505050505050565b6000809054906101000a900473ffffffffffffffffffffffffffffffffffffffff1681565b80601b60006101000a81548173ffffffffffffffffffffffffffffffffffffffff021916908373ffffffffffffffffffffffffffffffffffffffff16021790555050565b80601490805190602001906108009291906109a4565b5050565b846003908051906020019061081a9291906109a4565b5083600490805190602001906108319291906109a4565b5082600590805190602001906108489291906109a4565b50816006908051906020019061085f9291906109a4565b5080600790805190602001906108769291906109a4565b505050505050565b80601c60006101000a81548173ffffffffffffffffffffffffffffffffffffffff021916908373ffffffffffffffffffffffffffffffffffffffff16021790555050565b8b600890805190602001906108d89291906109a4565b508a600990805190602001906108ef9291906109a4565b5089600a90805190602001906109069291906109a4565b5088600b908051906020019061091d9291906109a4565b5087600c90805190602001906109349291906109a4565b5086600d908051906020019061094b9291906109a4565b5085600e90805190602001906109629291906109a4565b5084600f819055508360108190555082601190805190602001906109879291906109a4565b508160128190555080601381905550505050505050505050505050565b828054600181600116156101000203166002900490600052602060002090601f016020900481019282601f106109e557805160ff1916838001178555610a13565b82800160010185558215610a13579182015b82811115610a125782518255916020019190600101906109f7565b5b509050610a209190610a24565b5090565b610a4691905b80821115610a42576000816000905550600101610a2a565b5090565b905600a165627a7a7230582085da97d35809f620494f89078764e8ac8d376156232606e4b99cee3bbbd78de80029",
  "source": "pragma solidity ^0.4.17;\n\ncontract GpoDetailContract {\n    address public owner;\n\n    string gpo_id;\n    string sup_id;\n    string p_id;\n    string p_code;\n    string p_sup_item;\n    string p_ndc;\n    string item_title;\n    string gtin_code;\n    string prod_cond;\n    string brand_name;\n    string unspsc_code;\n    string class_cat_code;\n    string name_of_mfr;\n    string contract_id;\n    int contract_pr;\n    int ptt_code;\n    string p_cur_code;\n    int p_sh_amt;\n    int p_sh_pct;\n    string comments;\n    string created_by;\n    uint created_on;\n    string updated_by;\n    uint updated_on;\n    string void_by;\n    uint void_on;\n    address contracted_list;\n    address prod_tier_rewards;\n\n    modifier onlyOwner() {\n        require(msg.sender == owner);\n        _;\n    }\n\n    function GpoDetailContract() public\n    {\n        owner = msg.sender;\n    }\n\n    function setContractDetail(\n        string _gpo_id,\n        string _sup_id,\n        string _created_by,\n        uint _created_on,\n        string _updated_by,\n        uint _updated_on,\n        string _void_by,\n        uint _void_on\n    )\n        public\n    {\n        gpo_id = _gpo_id;\n        sup_id = _sup_id;\n        created_by = _created_by;\n        created_on = _created_on;\n        updated_by = _updated_by;\n        updated_on = _updated_on;\n        void_by = _void_by;\n        void_on = _void_on;\n    }\n\n    function setDetailCode(\n        string _p_id,\n        string _p_code,\n        string _p_sup_item,\n        string _p_ndc,\n        string _item_title\n    )\n        public\n    {\n        p_id = _p_id;\n        p_code = _p_code;\n        p_sup_item = _p_sup_item;\n        p_ndc = _p_ndc;\n        item_title = _item_title;\n    }\n\n    function setDetailCode2(\n        string _gtin_code,\n        string _prod_cond,\n        string _brand_name,\n        string _unspsc_code,\n        string _class_cat_code,\n        string _name_of_mfr,\n        string _contract_id,\n        int _contract_pr,\n        int _ptt_code,\n        string _p_cur_code,\n        int _p_sh_amt,\n        int _p_sh_pct\n    )\n        public\n    {\n        gtin_code = _gtin_code;\n        prod_cond = _prod_cond;\n        brand_name = _brand_name;\n        unspsc_code = _unspsc_code;\n        class_cat_code = _class_cat_code;\n        name_of_mfr = _name_of_mfr;\n        contract_id = _contract_id;\n        contract_pr = _contract_pr;\n        ptt_code = _ptt_code;\n        p_cur_code = _p_cur_code;\n        p_sh_amt = _p_sh_amt;\n        p_sh_pct = _p_sh_pct;\n    }\n\n    function setContractedList(address _contracted_list) public {\n        contracted_list = _contracted_list;\n    }\n\n    function setProdTierRewards(address _prod_tier_rewards) public {\n        prod_tier_rewards = _prod_tier_rewards;\n    }\n\n    function setComments(string _comments) public {\n        comments = _comments;\n    }\n\n}",
  "sourcePath": "/home/simba/workstation/solidity/GPO/contracts/GpoDetailContract.sol",
  "compiler": {
    "name": "solc",
    "version": "0.4.19+commit.c4cbbb05.Emscripten.clang"
  },
  "schemaVersion": "1.0.1",
  "updatedAt": "2018-03-05T17:30:50.115Z"
}