{
  "contractName": "ProdTierRewards",
  "abi": [
    {
      "constant": true,
      "inputs": [],
      "name": "owner",
      "outputs": [
        {
          "name": "",
          "type": "address"
        }
      ],
      "payable": false,
      "stateMutability": "view",
      "type": "function"
    },
    {
      "inputs": [
        {
          "name": "_tier_id",
          "type": "string"
        },
        {
          "name": "_tier_start_dt",
          "type": "uint256"
        },
        {
          "name": "_tier_end_dt",
          "type": "uint256"
        },
        {
          "name": "_min_qty",
          "type": "uint256"
        },
        {
          "name": "_min_amt",
          "type": "uint256"
        },
        {
          "name": "_reward_amt",
          "type": "uint256"
        },
        {
          "name": "_reward_cur",
          "type": "uint256"
        },
        {
          "name": "_reward_pct",
          "type": "uint256"
        },
        {
          "name": "_iter_distr_pct",
          "type": "string"
        },
        {
          "name": "_smart_contract_id",
          "type": "string"
        },
        {
          "name": "_smart_contract_date",
          "type": "string"
        },
        {
          "name": "_tier_desc",
          "type": "string"
        }
      ],
      "payable": false,
      "stateMutability": "nonpayable",
      "type": "constructor"
    }
  ],
  "bytecode": "0x6060604052341561000f57600080fd5b6040516102dd3803806102dd833981016040528080518201919060200180519060200190919080519060200190919080519060200190919080519060200190919080519060200190919080519060200190919080519060200190919080518201919060200180518201919060200180518201919060200180518201919050508b600190805190602001906100a4929190610143565b508a60028190555089600381905550886004819055508760058190555086600681905550856007819055508460088190555083600990805190602001906100ec929190610143565b5082600a9080519060200190610103929190610143565b5081600b908051906020019061011a929190610143565b5080600c9080519060200190610131929190610143565b505050505050505050505050506101e8565b828054600181600116156101000203166002900490600052602060002090601f016020900481019282601f1061018457805160ff19168380011785556101b2565b828001600101855582156101b2579182015b828111156101b1578251825591602001919060010190610196565b5b5090506101bf91906101c3565b5090565b6101e591905b808211156101e15760008160009055506001016101c9565b5090565b90565b60e7806101f66000396000f300606060405260043610603f576000357c0100000000000000000000000000000000000000000000000000000000900463ffffffff1680638da5cb5b146044575b600080fd5b3415604e57600080fd5b60546096565b604051808273ffffffffffffffffffffffffffffffffffffffff1673ffffffffffffffffffffffffffffffffffffffff16815260200191505060405180910390f35b6000809054906101000a900473ffffffffffffffffffffffffffffffffffffffff16815600a165627a7a72305820bbddfac7e30b9cffc4a996da02834ac9d3b8e387f23746dc77476c58aa1bf47f0029",
  "source": "pragma solidity ^0.4.17;\n\ncontract ProdTierRewards {\n    address public owner;\n\n    struct Dict {\n        string objectName;\n        string obj_type;\n        string obj_key;\n    }\n\n    string tier_id;\n    uint tier_start_dt;\n    uint tier_end_dt;\n    uint min_qty;\n    uint min_amt;\n    uint reward_amt;\n    uint reward_cur;\n    uint reward_pct;\n    string iter_distr_pct;\n    string smart_contract_id;\n    string smart_contract_date;\n    string tier_desc;\n\n    modifier onlyOwner() {\n        require(msg.sender == owner);\n        _;\n    }\n\n    function ProdTierRewards(\n        string _tier_id,\n        uint _tier_start_dt,\n        uint _tier_end_dt,\n        uint _min_qty,\n        uint _min_amt,\n        uint _reward_amt,\n        uint _reward_cur,\n        uint _reward_pct,\n        string _iter_distr_pct,\n        string _smart_contract_id,\n        string _smart_contract_date,\n        string _tier_desc\n    )\n        public\n    {\n        tier_id = _tier_id;\n        tier_start_dt = _tier_start_dt;\n        tier_end_dt = _tier_end_dt;\n        min_qty = _min_qty;\n        min_amt = _min_amt;\n        reward_amt = _reward_amt;\n        reward_cur = _reward_cur;\n        reward_pct = _reward_pct;\n        iter_distr_pct = _iter_distr_pct;\n        smart_contract_id = _smart_contract_id;\n        smart_contract_date = _smart_contract_date;\n        tier_desc = _tier_desc;\n    }\n\n    // function setStruct(string _objectName,string _obj_type, string _obj_key) public onlyOwner {\n    //     structs.objectName = _objectName;\n    //     structs.obj_type = _obj_type;\n    //     structs.obj_key = _obj_key;\n    // }\n}",
  "sourcePath": "/home/simba/workstation/solidity/GPO/contracts/TierPricing.sol",
  "compiler": {
    "name": "solc",
    "version": "0.4.19+commit.c4cbbb05.Emscripten.clang"
  },
  "schemaVersion": "1.0.1",
  "updatedAt": "2018-03-05T17:34:30.863Z"
}