{
  "contractName": "TierPricing",
  "abi": [
    {
      "constant": true,
      "inputs": [],
      "name": "owner",
      "outputs": [
        {
          "name": "",
          "type": "address"
        }
      ],
      "payable": false,
      "stateMutability": "view",
      "type": "function"
    },
    {
      "inputs": [],
      "payable": false,
      "stateMutability": "nonpayable",
      "type": "constructor"
    },
    {
      "constant": false,
      "inputs": [
        {
          "name": "_tier_id",
          "type": "string"
        },
        {
          "name": "_tier_start_dt",
          "type": "uint256"
        },
        {
          "name": "_tier_end_dt",
          "type": "uint256"
        },
        {
          "name": "_min_qty",
          "type": "uint256"
        },
        {
          "name": "_min_amt",
          "type": "uint256"
        },
        {
          "name": "_reward_amt",
          "type": "uint256"
        },
        {
          "name": "_reward_cur",
          "type": "uint256"
        },
        {
          "name": "_reward_pct",
          "type": "uint256"
        },
        {
          "name": "_iter_distr_pct",
          "type": "string"
        },
        {
          "name": "_smart_contract_id",
          "type": "string"
        },
        {
          "name": "_smart_contract_date",
          "type": "string"
        },
        {
          "name": "_tier_desc",
          "type": "string"
        }
      ],
      "name": "setTierPricing",
      "outputs": [],
      "payable": false,
      "stateMutability": "nonpayable",
      "type": "function"
    }
  ],
  "bytecode": "0x6060604052341561000f57600080fd5b336000806101000a81548173ffffffffffffffffffffffffffffffffffffffff021916908373ffffffffffffffffffffffffffffffffffffffff1602179055506103f68061005e6000396000f30060606040526004361061004c576000357c0100000000000000000000000000000000000000000000000000000000900463ffffffff1680638da5cb5b14610051578063cc682c00146100a6575b600080fd5b341561005c57600080fd5b61006461024e565b604051808273ffffffffffffffffffffffffffffffffffffffff1673ffffffffffffffffffffffffffffffffffffffff16815260200191505060405180910390f35b34156100b157600080fd5b61024c600480803590602001908201803590602001908080601f0160208091040260200160405190810160405280939291908181526020018383808284378201915050505050509190803590602001909190803590602001909190803590602001909190803590602001909190803590602001909190803590602001909190803590602001909190803590602001908201803590602001908080601f0160208091040260200160405190810160405280939291908181526020018383808284378201915050505050509190803590602001908201803590602001908080601f0160208091040260200160405190810160405280939291908181526020018383808284378201915050505050509190803590602001908201803590602001908080601f0160208091040260200160405190810160405280939291908181526020018383808284378201915050505050509190803590602001908201803590602001908080601f01602080910402602001604051908101604052809392919081815260200183838082843782019150505050505091905050610273565b005b6000809054906101000a900473ffffffffffffffffffffffffffffffffffffffff1681565b8b60019080519060200190610289929190610325565b508a60028190555089600381905550886004819055508760058190555086600681905550856007819055508460088190555083600990805190602001906102d1929190610325565b5082600a90805190602001906102e8929190610325565b5081600b90805190602001906102ff929190610325565b5080600c9080519060200190610316929190610325565b50505050505050505050505050565b828054600181600116156101000203166002900490600052602060002090601f016020900481019282601f1061036657805160ff1916838001178555610394565b82800160010185558215610394579182015b82811115610393578251825591602001919060010190610378565b5b5090506103a191906103a5565b5090565b6103c791905b808211156103c35760008160009055506001016103ab565b5090565b905600a165627a7a723058206c292d834bb7327212ff900574170d79a507729432b59f7ed42cd1691daf46e00029",
  "source": "pragma solidity ^0.4.17;\n\ncontract TierPricing {\n    address public owner;\n\n    struct Dict {\n        string objectName;\n        string obj_type;\n        string obj_key;\n    }\n\n    string tier_id;\n    uint tier_start_dt;\n    uint tier_end_dt;\n    uint min_qty;\n    uint min_amt;\n    uint reward_amt;\n    uint reward_cur;\n    uint reward_pct;\n    string iter_distr_pct;\n    string smart_contract_id;\n    string smart_contract_date;\n    string tier_desc;\n\n    modifier onlyOwner() {\n        require(msg.sender == owner);\n        _;\n    }\n\n    function TierPricing() public {\n        owner = msg.sender;\n    }\n\n    function setTierPricing(\n        string _tier_id,\n        uint _tier_start_dt,\n        uint _tier_end_dt,\n        uint _min_qty,\n        uint _min_amt,\n        uint _reward_amt,\n        uint _reward_cur,\n        uint _reward_pct,\n        string _iter_distr_pct,\n        string _smart_contract_id,\n        string _smart_contract_date,\n        string _tier_desc\n    )\n        public\n    {\n        tier_id = _tier_id;\n        tier_start_dt = _tier_start_dt;\n        tier_end_dt = _tier_end_dt;\n        min_qty = _min_qty;\n        min_amt = _min_amt;\n        reward_amt = _reward_amt;\n        reward_cur = _reward_cur;\n        reward_pct = _reward_pct;\n        iter_distr_pct = _iter_distr_pct;\n        smart_contract_id = _smart_contract_id;\n        smart_contract_date = _smart_contract_date;\n        tier_desc = _tier_desc;\n    }\n\n    // function setStruct(string _objectName,string _obj_type, string _obj_key) public onlyOwner {\n    //     structs.objectName = _objectName;\n    //     structs.obj_type = _obj_type;\n    //     structs.obj_key = _obj_key;\n    // }\n}",
  "sourcePath": "/home/simba/workstation/solidity/GPO/contracts/TierPricing.sol",
  "compiler": {
    "name": "solc",
    "version": "0.4.19+commit.c4cbbb05.Emscripten.clang"
  },
  "schemaVersion": "1.0.1",
  "updatedAt": "2018-03-05T17:42:41.882Z"
}